:020000040800F2
:10000000280C0020BD0100084F470008BD3E000835
:100010004D4700088F240008894E000800000000AA
:10002000000000000000000000000000F14800088F
:10003000D52500080000000025480008454A0008B2
:10004000D7010008D7010008D7010008D701000830
:10005000D7010008D7010008D7010008D701000820
:10006000D7010008D7010008D7010008D701000810
:10007000D7010008D7010008D7010008D701000800
:10008000D7010008D7010008D7010008D7010008F0
:10009000D7010008D7010008D7010008D7010008E0
:1000A000D7010008D7010008D7010008D7010008D0
:1000B000D7010008D7010008D7010008D7010008C0
:1000C000D7010008D7010008D7010008D7010008B0
:1000D000D7010008654E0008714E00087D4E0008EB
:1000E000D7010008D7010008D701000800F002F886
:1000F00000F054F80AA090E8000C82448344AAF16E
:100100000107DA4501D100F049F8AFF2090EBAE86B
:100110000F0013F0010F18BFFB1A43F0010318473B
:10012000A85F0000C85F0000103A24BF78C878C1FB
:10013000FAD8520724BF30C830C144BF04680C60ED
:10014000704700000023002400250026103A28BF35
:1001500078C1FBD8520728BF30C148BF0B60704739
:10016000662905F0D286642900F046810020704798
:100170001FB59DE8030000F079FB01F053F904007E
:100180000020002105F0A4FC401C6060002000213C
:1001900005F0B4FCE0601FBD10B510BD01F06CFAB5
:1001A0001146FFF7E5FF05F013F901F0B5FC03B4C4
:1001B000FFF7F2FF03BC01F0E5FC000009488047AF
:1001C00009480047FEE7FEE7FEE7FEE7FEE7FEE739
:1001D000FEE7FEE7FEE7FEE704480549054A064B51
:1001E00070470000C14A0008ED0000082806002002
:1001F000280C0020280800202808002070B506469A
:1002000000F018FB056806F10B0020F00704B4426B
:100210009CBF002070BD2B466A68BAB11068A0422E
:1002200010D304F1080188423CBF5068586007D3DE
:100230005168101941601168091B01605860146011
:10024000101D70BD13465268002AE7D1214628468A
:1002500000F0F8FA0028DED170BD70B50446051F25
:1002600000F0E8FA0068002C14BF446870BD002C50
:1002700018BFAC423CBF20466468F8D301680A1836
:10028000AA4218BF456003D12A680546114401609F
:1002900028684119A1421CBF6C6070BD616869602B
:1002A00021680844286070BD70B50D460646041FDD
:1002B00000F0C0FAD0F800C0C5B1E6B105F10B00FE
:1002C00020F00703AB423CBF002070BD206898427D
:1002D00038BFDCF8042013D3C11A08292FD3E01843
:1002E00040F8041B2360FFF7B8FF28E03046FFF713
:1002F000B4FF002070BD2846BDE87040FFF77EBF08
:10030000002A18BFA2423CBF94465268F8D3011994
:10031000914216D111680844984212D3C11A082993
:100320003CBF2060506808D35168E01841602168E4
:1003300012681144C91A01602360CCF80400201D22
:1003400070BD181FFFF75AFF050007D021680A1F6C
:10035000211D00F09FF9201DFFF77FFF284670BD8B
:1003600010B5044600F05EFA0068005DC00602D5D4
:1003700004F1200010BD204610BD00000FB41CB5D4
:10038000084B06AA7B4469460090059800F01DFDC5
:1003900004460020694600F02BFD20461CBC5DF899
:1003A00014FB0000690A000070B504468569006806
:1003B000C10601D5302600E02026C00707D070BD59
:1003C000D4E9012130469047206A401C20626D1E0E
:1003D000F6D570BD70B5044685690078C00707D1B1
:1003E00070BDD4E9012120209047206A401C206282
:1003F0006D1EF6D570BD00002DE9F04106460024C3
:1004000010687529314616A510D0AFF3008000287A
:1004100002DA404213A507E031688A0701D512A528
:1004200002E0490704D511A5012401E0AFF30080E3
:1004300000210A2206F1240709E0B0FBF2FCB0FB20
:10044000F2F302FB1C00303078541846491C002897
:10045000F3D123462A463046BDE8F04100F047BAC2
:10046000000000002D0000002B0000002000000014
:100470002DE9F05F894604464FF0000ADFF824B109
:10048000FB44C0F820A02046E168884700287DD0C2
:10049000252806D0D4E901219047206A401C20621B
:1004A000F1E700255F462046E16888472028064698
:1004B00007DB312E05D2B81910F8200C08B105431E
:1004C000F1E7A80701D525F00405C4F81CA0002712
:1004D000C4F818A02A2E09D0304604F09EFD38B387
:1004E00004EB8708303EC8F8186019E059F8041B7F
:1004F000204604EB87029161E1688847012F064698
:1005000018D1E069002820DA25F020051DE0D8F890
:10051000180000EB800006EB40003038C8F81800E7
:100520002046E1688847064604F077FD0028EED1B2
:10053000012F0AD02E2E08D12046E16888477F1C63
:100540000646022F45F02005C4DBA069002803DA27
:10055000404245F00105A061E80701D025F01005F3
:10056000A6B1A6F14100192802D8203645F400654D
:100570004A463146204625604D46FFF7F1FD60B101
:10058000012807D0ED1D25F0070000E007E000F18D
:10059000080978E705F1040975E730467AE7206A2B
:1005A000BDE8F09F9E5B000010B5431C02E010F810
:1005B000011B71B18107FAD14FF0013202C88C1AC8
:1005C0008C4314EAC211F9D0C01A0A0603D0C01E27
:1005D00010BDC01A10BD0A0401D0801E10BD090252
:1005E000FCD0401E10BD40EA010370B59B072ED120
:1005F0004FF00136042A2AD308C810C99D1B9D4319
:10060000121F15EAC61517D0D8B2E1B2401A50EA47
:10061000056110D198B2A1B2401A50EA05410AD141
:1006200023F07F4024F07F41401A50EA052102D197
:10063000180EA0EB146070BDA342DBD018BA21BA2B
:10064000884201D9012070BD4FF0FF3070BD0AB95A
:10065000002070BD10F8013B11F8014B63B1A342BB
:100660000AD1521E08D010F8013B11F8014B1BB102
:10067000A34201D1521EEDD1181B70BD421E12F8CB
:10068000013F002BFBD111F8013B002B02F8013B8D
:10069000F9D1704710B5203AC0F00B80B1E818507E
:1006A000203AA0E81850B1E81850A0E81850BFF45C
:1006B000F5AF5FEA027C24BFB1E81850A0E81850FB
:1006C00044BF18C918C0BDE810405FEA827C24BF4F
:1006D00051F8043B40F8043B08BF7047D20728BFDD
:1006E00031F8023B48BF11F8012B28BF20F8023B2C
:1006F00048BF00F8012B70474FF0000200B51346C9
:1007000094469646203922BFA0E80C50A0E80C5031
:10071000B1F12001BFF4F7AF090728BFA0E80C50E2
:1007200048BF0CC05DF804EB890028BF40F8042BDB
:1007300008BF704748BF20F8022B11F0804F18BF48
:1007400000F8012B704710B5044610F0030F08BFE6
:1007500011F0030F40F015804FF0013E121FC0F260
:100760000E8051F8043BA3EB0E0C2CEA030C1CEAA0
:10077000CE1C08BF40F8043BF0D0A1F1040102F107
:100780000402521E08DB11F8013B002B00F8013B6C
:10079000F7D1114600F020FE204610BD4FF0013C7D
:1007A00050F8042B51F8043B9A4221D1A2EB0C03E0
:1007B000934313EACC1317D150F8042B51F8043BA0
:1007C0009A4215D1A2EB0C03934313EACC130BD13D
:1007D00050F8042B51F8043B9A4209D1A2EB0C03C8
:1007E000934313EACC13DBD04FF00000704700BFF7
:1007F000D01A01BAB1FA81F101F0180122FA01F020
:10080000CB40C1F12001DBB2C0B2C01A2CFA01F317
:10081000D11A914311EAC311E6D17047704770476E
:100820007047000010B500F0FDFD001D10BD00BFB9
:10083000A152000000487047D00500207047704763
:100840007047704738B504460A4600206946AFF342
:100850000080002808BF38BD02460099204600F0FD
:10086000E9FD012038BD012000F0FEBEF8B5AFF370
:100870000080054600200C46102000BF0646A8193F
:10088000A0420DD9324669460020AFF30080070030
:1008900008BF00F0E9FE0098A04218BF0546C41941
:1008A000FFF7C8FF05600746F01D20F00700461956
:1008B000284600F00AF8B44208BFF8BDA21B314632
:1008C0003868BDE8F84000F0B5BD00210160C0E91E
:1008D000011070471020704710B500F0A7FD0068A8
:1008E00010BD10B5044600F0A1FD046010BD2DE957
:1008F000F0470D4699469246044600F124080168E7
:10090000880604D5E06921F01001216000E0012093
:10091000A84201DD471B00E00027A1697A1902EB1C
:100920000900081AA0612078C00602D42046FFF70B
:100930003BFD002608E0D4E901211AF806009047A3
:10094000206A401C761C20624E45F4DB2078C006ED
:100950000AD52046FFF728FD06E0D4E90121302022
:100960009047206A401C2062381EA7F10107F4DC82
:1009700007E0D4E9012118F805009047206A401CDF
:100980002062281EA5F10105F3DC2046FFF722FDB9
:100990002078000602D50220BDE8F0870120FBE7A1
:1009A00070472DE9FF4F0C461E464FF0FF378BB0C6
:1009B000D2E90001DDF860800A908A46C1F30A5549
:1009C00005B93D46002108464FF00000BAF1000F7E
:1009D00000F4400005DA00EB80004FF4400101EA2A
:1009E00050004FEA9059B9F1010F00DDB9460A985D
:1009F00050EA4A000ED044F61050A5F2FF354543A8
:100A00002F14B8F1000F1ED07542291E1EDDC9F14A
:100A100000021CE0B8F1010F4FF0000001D03021BE
:100A200003E0F24305E02154401CB042FBDB3046BA
:100A30000022002121540B99C1F80880C1E900204F
:100A40000FB0BDE8F08FBD1B6D1CDEE74A4600DA33
:100A5000694206A800F096FD06AB93E8070003ABD9
:100A600083E8070050460A9901F0D3F88DE80700A3
:100A7000A0F500501F3800900398002D0ADD42F2C7
:100A80001F014A460844002303A90390684601F069
:100A90007FFB09E0A0F500504A461F38002303A958
:100AA0000390684601F09EFB8DE807000004000CEF
:100AB00003D04FF0FF30410800E01046B8F1000FBE
:100AC00003D00022009215461EE0751E05D400F0EA
:100AD000CBFC303262556D1EF9D5B3460122084376
:100AE00002D000227F1C04E02078302801D10022AF
:100AF0007F1E002A099784D01DE0112D07DA00F02F
:100B0000B3FC303262556D1C50EA0102F5D1084346
:100B100002D00098C8B10EE00021681E05E0235CF9
:100B2000625C63542254401E491C8142F7DBAB4691
:100B3000A81B401E0990002004F80B000B98099A8E
:100B4000C0F80880C0E9002B7AE711264FF00008B2
:100B500057E72DE9F04F88460446D21D22F00701E1
:100B600091B0D1E90001CDE90A0104F0B1F90246E2
:100B70000B98C00F01D02D2007E02068810701D518
:100B80002B2002E0202101EAC000032A099001D0B5
:100B9000072A05DB03464146204600F0B3FC0BE183
:100BA0002078800601D5E06900E00620B8F1650FE5
:100BB000814606D0B8F1660F18D0B8F1670F70D132
:100BC00031E00020B9F1110F009001DB112301E0A9
:100BD00009F101030AAA01A90CA8FFF7E2FEDDE969
:100BE0000C70002609F10105834647E001204B46C1
:100BF00000904FF000470AAA01A90CA8FFF7D1FE08
:100C0000DDE90DB00C995D46002610B909F101002F
:100C10000D18B9EB050003D4C0F1FF3609F1010549
:100C2000A5EB09002BE0B9F1010F01DA4FF0010942
:100C30000020B9F1110F0090484601DD112300E0BA
:100C400003460AAA01A90CA8FFF7ABFEDDE90C7068
:100C50004D4600268346207800070AD4AB4500DACB
:100C60005D4601A8012D04DD411911F8011C302950
:100C700007D04F4502DA17F1040F04DA012082464B
:100C80000FE06D1EEEE7002F02DCED1B3E4403E09B
:100C9000781CA84200DD7D1CB81B00F1010A4FF052
:100CA00000472078000703D4AA4501DB4FF0FF3A44
:100CB0000021B7F1004F0DF143088DF8431024D007
:100CC00002202B23002F01DA7F422D230A21021E4E
:100CD000A0F1010000DC5FB197FBF1FC97FBF1F2A2
:100CE00001FB1C7C17460CF1300C08F801CDEEE737
:100CF000A8F1010003702188090501D5452100E014
:100D00006521A0F1010800F8011C09980FA9A1EBC9
:100D10000807FF1D00B10120411901EBEA70A1692C
:100D20003844081A401EA0612078C00602D420462C
:100D3000FFF73AFB099828B1D4E901219047206ACE
:100D4000401C20622078C00622D52046FFF72CFBED
:100D50001EE0002E04DBB34502DD01A8805D00E04B
:100D60003020D4E901219047206A401C2062761C83
:100D7000AAF101005FEA000A0AD100F053FBC06843
:100D80000168405CD4E901219047206A401C206240
:100D9000281EA5F10105DCDC07E0D4E9012118F8E3
:100DA000010B9047206A401C2062381EA7F1010702
:100DB000F3DC2046FFF70EFB032011B041E60000F4
:100DC00001694A1C02610878704700B58FB0CDE90F
:100DD00001310021059105497944CDE903101146FF
:100DE0006846FFF745FB0FB000BD0000E5FFFFFFC1
:100DF0000A6802F8010B0A60704700002DE9FF4FF6
:100E000006468BB00878FF2806D0491C2D2805D04F
:100E100000244FF0000908E000200CE00124F8E76E
:100E200009EB8903491C00EB43090878FF28F7D137
:100E300014B1C9F100008146107800252C46AA465D
:100E400029462D2801D02B2804D1521C2D2813D03F
:100E5000002082468B461078FF280FD04FF0000C00
:100E60000A21521CA5FB017804FB018105FB0C1132
:100E7000C5194BEB0104EEE70120EAE70021084623
:100E80004FF00000BAF1000F02D000EB80004008E4
:100E9000C0F38157012F01DD4FF0FF370E9955EA5E
:100EA000040009EB01080BD04FF0020918F5FA7F96
:100EB00016DA4FEACA70002F706008DD012007E0E3
:100EC0004FEACA70C6E900B00FB0BDE8F08F00204D
:100ED000306000F0ABFAC0F800901821084616E028
:100EE000B8F5FA7F18DD002F02DAF748784401E000
:100EF000F6487844D0E90010C6E9001040EACA700C
:100F0000706000F093FAC0F80090142108460FB00A
:100F1000BDE8F04F04F0F6BF002108464FF0000096
:100F2000B8F10001099002DAC7F1000200E03A4688
:100F300001DAC8F1000106A800F024FB06AB93E833
:100F4000070003AB83E8070044F23E005BEA0401BC
:100F50000090584604D144F21E012C465D46009193
:100F6000210C0904014306D10099240444EA1544E4
:100F70002D041039009104F07F41014306D10099FE
:100F8000240244EA15642D020839009104F07041EE
:100F9000014306D10099240144EA15742D01091F6B
:100FA000009104F04041014306D10099A40044EAB5
:100FB0009574AD00891E009104F00041084304D1EE
:100FC00000986D196441401E00904FF001033A46AD
:100FD0006846B8F1000FCDE9014503A902DD01F033
:100FE00016F901E001F0E9F8BAF1000F04460D46E8
:100FF00001D084F00044002108464FF00000099918
:1010000040F2FF77484010F00C0F07D124F0004069
:10101000284303D0C4F30A50B84212D100F006FAB4
:10102000C0F80090C4F30A50B8420AD1A8487844E6
:10103000D0E90010C6E9001004F0004108437060D8
:1010400042E7C6E900543FE72DE9FF4F1F464FF046
:10105000000A4FF0FF38454691B0D7E90146CDF878
:101060003CA000F0DFF9C0680168405C1090B969ED
:1010700012986D1C8847396A814688470028F6D146
:10108000B9F1FF3F0AD0002E24F4D06411DDB9F18C
:101090002B0F08D0B9F12D0F0BD102E0404615B04F
:1010A00013E744F48064B96912986D1C8847761E72
:1010B0008146600504A901D52D2000E02B20002EDB
:1010C00001F1010B0DF130088DF810003FDDB9F191
:1010D000690F08D0B9F1490F05D0B9F16E0F02D0F0
:1010E000B9F14E0F1CD13B4601A8009580E8500293
:1010F000DDE912126FF0020004F06DFFC11CCED1C9
:101100000EE0B96912986D1C884781461398761EC7
:1011100044F4007405600F98401C002E0F9016DDFB
:10112000B9F1300FEDD0B9F1780F02D0B9F1580F05
:101130000DD10F9801280AD13B46CDE90054DDE9D5
:101140001212001F029604F044FFC11CA7D110998F
:1011500089453ED144F0800406E01399681CAAF149
:10116000010A44F400740860B9696D1C1298761E77
:10117000884730288146F0D02BE01099894505D169
:10118000200603D4761E44F0800418E0484603F09D
:1011900044FF08B3761E0DF123018B4544F400741F
:1011A00008D2A9F130000BF8010B200607D5AAF1EF
:1011B000010003E0200602D40AF101008246A005E6
:1011C00002D51399681C0860B96912986D1C88478C
:1011D0008146002ED1DC53E0002E51DDB9F1650FC0
:1011E00002D0B9F1450F4BD1A00549D5B9696D1CA5
:1011F0001298761E24F440748847002E81460CDD38
:101200002B2804D0B9F12D0F07D144F48074B969AB
:1012100012986D1C8847761E8146E00501D52D2168
:1012200000E02B2108F8011BCDF8008021E0761E9C
:101230000DF13901884544F400740CD2A9F1300055
:1012400010F0FF0088F8000002D10099884509D904
:1012500008F1010806E0E00501D51E4801E042F270
:101260000F708246B96912986D1C884781461398A1
:101270000560002E04DD484603F0CFFE0028D6D1DD
:10128000F96912988847FF2053468BF8000088F8C8
:10129000000000200A900B9004AA0CA90AA8FFF7EE
:1012A000ADFDA00502D46FF00100F8E614F0240FA4
:1012B00012D0E0071CD13868DDE90A12031D3B603B
:1012C0000068C0E9001213E000520000F251000073
:1012D000B6500000F1D8FFFF0AA9684603F02CFEC3
:1012E000E00705D13868009A011D39600068026086
:1012F0002846D4E6426842B1016811F8013B23B1A7
:10130000521EC0E90012184670470121C160881EB4
:10131000704742685AB1C368016843B983688B4219
:1013200005D0491E521CC0E90012002070474FF042
:10133000FF3070470FB4002300B589B00CA90091AD
:101340000B99CB60214B7B440693214B7B44079345
:1013500004236FF00042CDE901321E4A7A446B4605
:1013600008920246002004F032FE09B05DF814FB3A
:1013700070B506464FF0FF3015460C46324686B033
:101380000091CDE9010169460020049004A8FFF70F
:10139000D1FF02460498211825B108B1084600E0A3
:1013A00020462860049800280DD0002A02DD00980D
:1013B000884208D03246081B69460094CDE90104F2
:1013C00004A8FFF7B7FF06B070BD0000ABFFFFFF3A
:1013D000C3FFFFFF930100004FF000020429C0F09B
:1013E000128010F0030C3FF489A9CCF1040CBCF17D
:1013F000020F18BF00F8012BA8BF20F8022BA1EBA9
:101400000C01FFF77BB95FEAC17C24BF00F8012B18
:1014100000F8012B48BF00F8012B704700487047C7
:10142000C805002000487047E805002000487047C4
:10143000C8050020034640688C46002818BF884233
:101440003CBF03464068F8D318681844884207D068
:101450000CF1030020F00700001D411A521A01464A
:10146000081D0A60FEF7F9BE30B5B0F10A024FEA76
:10147000900E71F100034EEA817EB0EB0E0061EB3D
:1014800091014FEA101E4EEA017E10EB0E0041EB77
:1014900011114FEA102E4EEA016E10EB0E0041EBD7
:1014A00011214FEA104E4EEA014E10EB0E0041EBB7
:1014B0001141401841F100014FEAD00040EA41706B
:1014C0004FEAD10110EB80054FEA810444EA9074A1
:1014D00044EB01046D1944EB0404521BA3414FF08B
:1014E000000348BF0A3200D530BD401C41F1000165
:1014F00030BD10B50446FFF795F90068005D00F0B7
:10150000010010BD2DE9F0411F4604460326016885
:10151000072A01F4006004DB08B116A505E016A552
:1015200003E008B115A500E015A521F0100020602A
:10153000A069C01EA0610FB1401EA0612046FEF749
:1015400033FF4FB1D4E9012138469047206A401C4F
:101550002062C01C206206E0206AFAE7D4E901217B
:1015600015F8010B9047761EF8D22046FEF732FFA1
:10157000BDE8F0814E414E006E616E00494E46005E
:10158000696E66002DE9F047814616468AB03548F7
:1015900078440DC88DE80D0032487844801C03ACB7
:1015A0000DC884E80D0041F69B300844372190FBBC
:1015B000F1F290FBF1F5A5F1800501FB12041B3C53
:1015C00002D56442012000E00020DFF898A08046A8
:1015D0000027FA44AAF1BE0A0EE0E0070AD032461C
:1015E000684607EB470101230AEB810100F0FAFD91
:1015F0008DE8070064107F1C002CEED1194F7F444A
:10160000AE3F19E0E80715D007EB04100DF1180AFA
:1016100090E80E008AE80E00C068F04201D19819E7
:1016200008903246012306A903A800F0DBFD03ABB6
:1016300083E807006D10641C002DE3D14FF0010317
:1016400032466946B8F1000F03A802D000F0A0FDB1
:1016500001E000F0C7FDC9E90001C9F808200AB09F
:10166000BDE8F0871C4B000010B500F063FABDE840
:10167000104000F05ABA70477546FFF7CFFEAE46ED
:1016800005006946534620F00700854618B020B58E
:10169000FEF7A2FDBDE820404FF000064FF0000726
:1016A0004FF000084FF0000B21F00701AC46ACE80A
:1016B000C009ACE8C009ACE8C009ACE8C0098D4677
:1016C000704700002DE9FF4F1F464FF03C0987B0DF
:1016D0004FF00042DDE9141001F10108DDF858A0D7
:1016E00002EA4050039000200590834605460446D8
:1016F0000490B969461E08988847AAF1010A029029
:10170000BAF1000F3BDD02982E2815D0102100F011
:1017100052FA00282EDB4FF0010B0599014317D038
:10172000B9F1000F0BDB4A46C11700F031FA05434F
:101730000C43A9F1040905E0012004900BE008B175
:1017400045F0010501200590049820B9361D02E0FE
:10175000049800B1361FB969089808F10108884754
:10176000BBF1000FAAF1010A0290C9D00999C1F892
:101770000080C5E70298702808D0502806D0F96983
:1017800008988847BBF1000F14D04FE0002002906A
:101790000120BBF1000F049009D0B969089808F145
:1017A00001088847AAF10109B9F1000F07DCF969BE
:1017B000089888476FF001000BB0BDE8F08F2B2828
:1017C00004D02D280CD14FF0FF300490B96908984F
:1017D00008F101088847A9F10109B9F1000FE6DD18
:1017E000411CE4D00A2100F0E6F90028DFDB029971
:1017F00008F1010801EB810100EB41000290B96999
:10180000089888470A2100F0D6F9099AA9F1010938
:10181000B9F1000FC2F8008001DD0028E7DAF969AC
:10182000089888470499029800FB016655EA04006D
:1018300004D004F04041090002D006E0039898E08B
:10184000A40044EA9574AD00B61E04F000410800FF
:1018500002D16D196441761E159810F0240F03D043
:101860004FF00B095C4803E04FF028096FF07D0052
:101870008246564507DAAAEB06018944B9F1410FC1
:1018800001DD4FF0410901200021A9F1010200F022
:101890007FF9024628400B462140084301D0012130
:1018A00000E00021501E029143F1FF312840214009
:1018B000084301D0012000E000200299834651EA4C
:1018C0000B014FD0002108464FF00000039900F4AF
:1018D000400039B100EB80004FF4400100EBD070C4
:1018E00001EA60008015012802DD4FF0FF3000E0C2
:1018F00013D0401C36D0029860B3BBF1000F0CD15E
:101900004A460120002100F043F9284021400843C5
:1019100001D0012000E00020E0B101204A46002172
:1019200000F036F9034640190A4661412D1A8C41F0
:1019300011D3B9F1400F09DD159810F0240F02D032
:10194000AAF1340603E0AAF1170600E0761C002590
:101950004FF0004406E05B1E42F1FF3220EA03052F
:1019600021EA0204CAF10100B04206DA1B490398D9
:1019700008430190002000900EE0039AC4F3D321A5
:10198000E80A0A43164940EA44500A433146CDE981
:101990000002684603F036FB159810F0240F0BD0B8
:1019A0001598C00715D13868DDE90012031D3B60AA
:1019B0000068C0E900120CE002A8694603F0BCFA16
:1019C0001598C00705D13868029A011D3960006872
:1019D00002604046F0E6000002FCFFFF0000F07FDE
:1019E0000000F03F2DE9FF4F92461D4685B04FF0B5
:1019F0000041DDE9124BDDE914727F1E01EA4B5014
:101A0000414940F0FF4940EA0108002122F020004E
:101A10004928049102D04E2828D04CE03BA0012652
:101A200007C88DE80700A9690698641C88477F1ECF
:101A3000014606D41DF8060018B121F020018142AC
:101A40000BD0E96906988847032E34D0082E32D08F
:101A50006FF0010009B0BDE8F08F761C032E01D0B5
:101A6000082EE0D1601CCAF80000DCE7A9690698DE
:101A7000641C88477F1E2AD420F02000412826D1EC
:101A8000A9690698641C88477F1E20D420F0200096
:101A90004E281CD1A9690698641C88477F1E48F40B
:101AA000002849F48009CAF8004001D4282806D04B
:101AB000E969069888475FEACB7012D022E0A969ED
:101AC0000698641C88477F1E01D4002803DAE96960
:101AD00006988847BCE72928F1D1641CCAF8004061
:101AE000E9E71BF0240F07D028680499031D2B6039
:101AF0000068C0E9001805E02868021D2A60006837
:101B0000C0F800902046A5E70000F07F494E464906
:101B10004E4954590000000010B50446AFF3008050
:101B20002046BDE81040FEF742BB002801D000F07F
:101B300029B8704710B5012805D0002103A000F096
:101B400048F8012010BD09A1F8E7000053494752A9
:101B5000544D454D3A204F7574206F66206865617D
:101B600070206D656D6F7279000000003A20486545
:101B70006170206D656D6F727920636F7272757020
:101B80007465640001491820ABBEFEE72600020020
:101B9000B2F120030AD5C2F1200301FA02F120FAC2
:101BA00003F300FA02F041EA0301704700FA03F17F
:101BB0004FF0000070473A2800D2303820F0200261
:101BC000412A01D3A2F13700884201D34FF0FF3000
:101BD000704770B505460C460A2000E06D1C00F009
:101BE00011F835B128780028F8D102E0641C00F023
:101BF00009F814B120780028F8D1BDE870400A2017
:101C0000AFF3008008B569468DF800000320ABBE35
:101C100008BD5FEA400C08BF91F0000F4FEA8C232B
:101C20004FEAC12243EA51514FEA1C5018BF00F558
:101C3000F0404FEA300018BF41F000415FEA6C5CB1
:101C400000F02980BCF1FF3F08BF40F080407047A2
:101C5000130C06BF12044FF0100C4FF0000C130EC3
:101C600004BF12020CF1080C130F04BF12010CF197
:101C7000040C930F04BF92000CF1020CD30F04BFAD
:101C800052000CF1010C11464FF00002A0F11F00B0
:101C9000A0EB0C00704711F0004F08BF704731F007
:101CA00000413FF4D5AF0B0C06BF09044FF0100CF8
:101CB0004FF0000C0B0E04BF09020CF1080C0B0FC7
:101CC00004BF09010CF1040C8B0F04BF89000CF157
:101CD000020CCB0F04BF49000CF1010CCCF1200326
:101CE000A0EB0C0022FA03F302FA0CF241EA030122
:101CF00000F10100704720F07F4C80EA030023F0E0
:101D00007F47ACEB070303F57C5300F0004003F181
:101D1000FF032DE980494FEA154B09B44FEA1443FC
:101D200025EA0B4E24EA03480FF2042606EB13279C
:101D300049083E785FEA320203FB0667C7F50007F1
:101D400007FB06F64FEA54374FEAD64606F102067D
:101D500007FB066CCCF1005C4FEA1C472CEA074CF1
:101D600007FB06F40CFB06F504EB15464FEA961646
:101D700034BF00204FF000404FEAD13706FB07FC8C
:101D80004FEA1C4C0CFB0BF7D21B03FB0CF761EB6F
:101D900007010CFB0EF7B0EB074072EB17420CFB90
:101DA00008F734BFA2EB0742B2EB074261EB1741E1
:101DB0004FEA0C444FEA910706FB07FC4FEA1C4C24
:101DC0000CFB0BF7B0EBC74072EB573203FB0CF781
:101DD00034BFA2EBC742B2EBC74261EB57310CFBF9
:101DE0000EF7B0EBC70072EB57720CFB08F734BF6D
:101DF000A2EBC702B2EBC70261EB5771039F4FEA38
:101E0000816141EA921104EBCC044FEAD1374FEAE9
:101E1000826206FB07FC42EA90124FEA80604FEABA
:101E20001C4C0CFB0BF7D21B03FB0CF761EB0701FF
:101E30000CFB0EF7B0EB074072EB17420CFB08F7F8
:101E400034BFA2EB0742B2EB074261EB17414FEA06
:101E50008C554FEA910704EB9C2406FB07FC4FEAE4
:101E60001C4C0CFB0BF7B0EBC74072EB573203FB7B
:101E70000CF734BFA2EBC742B2EBC74261EB57315C
:101E80000CFB0EF7B0EBC70072EB57720CFB08F7B8
:101E900034BFA2EBC702B2EBC70261EB577115EB7F
:101EA0004C254FEA816141EA92114FEA82624FEA82
:101EB000D13742EA901206FB07FC44F100044FEAD6
:101EC00080604FEA1C4C0CFB0BF7D21B03FB0CF79A
:101ED00061EB07010CFB0EF7B0EB074072EB17420A
:101EE0000CFB08F734BFA2EB0742B2EB074261EBF1
:101EF000174115EB1C154FEA813141EA92414FEA37
:101F0000823242EA90424FEA80304FEA0C7644F146
:101F1000000448EA03434EEA0B484FF0000EB2EBD0
:101F2000080C71EB030724BF624639464EEB0E0ED8
:101F30004FF0000B0018524149414BEB0B0BB2EB39
:101F4000080C71EB03077BF1000B24BF6246394696
:101F50004EEB0E0E4FF0000B0018524149414BEB77
:101F60000B0BB2EB080C71EB03077BF1000B24BFEA
:101F7000624639464EEB0E0E51EA020718BF46F094
:101F8000010616EB0E7655F1000254F1000103D55F
:101F9000BDE88901BDE80088BDE88901BDE80048C9
:101FA000B619524141EB0101A3F101037047808052
:101FB0007F7E7D7C7B7A79787776767574737271A3
:101FC00071706F6E6E6D6C6C6B6A6A69686867665B
:101FD00066656464636362616160605F5F5E5E5DED
:101FE0005D5C5C5B5B5A5A59595858575756565561
:101FF00055555454535352525251515050504F4FC3
:102000004F4E4E4D4D4D4C4C4C4B4B4B4A4A4A4912
:102010004949484848474747474646464545454455
:10202000444444434343434242424241414100000D
:1020300046EA0646A3F570534FEA164646EA42566C
:102040004FEAD22242EA415210B54FEAD121A3F120
:10205000010300F02FF820F0004000F1020C00F026
:10206000004701EB00501146BCF5006F40EA070045
:1020700000D210BDBAF1000F0AD01CB503B44FF066
:1020800004004FF004014FF000000FBCBDE8104009
:102090004FF00001BBF1010FB9BF04484FF0FF3111
:1020A0000348002140EA070010BD00BFFFFFEF7F9B
:1020B0000000F07F002B9C4630D477002BD01CB55D
:1020C0004FEA370703B44FF010004FF01001BAF198
:1020D000000F06D0BCF1000FDCBF40F0080040F05C
:1020E00008014FF000000FBCBDE810400BF1010BE0
:1020F000BBF1010F08BF5FEA170722BF12F101020F
:1021000011F101014FF0004143F1000300F00040E4
:1021100043EA00007047F9D35708D0E746EA06467D
:1021200013F1400F4FEA16461FDD13F1200FDFBFFA
:1021300016430A46002120335B42BED0C3F120077C
:1021400046EA064602FA07F74FEA164646EA070647
:10215000C3F1200722FA03F201FA07F721FA03F18B
:102160004FF0000342EA0702A7E746EA020646EA02
:1021700006464FEA164646EA0106BCBF46EA064650
:10218000360C4FF000034FF000024FF0000194E7CF
:102190002DE9804C9A46934670B491E8380007C800
:1021A00031EA400C48BF34EA430C03D5FFF7A3FDE6
:1021B000FFF780FFF0BCBDE8008C2DE9804C9A460B
:1021C000934670B491E8380007C831EA400C48BF24
:1021D00034EA430C03D5FFF78EFDFFF729FFF0BC6F
:1021E000BDE8008C2DE9804C9A46934670B491E886
:1021F000380007C810F0804F08BF13F0804F03D19C
:1022000000F01AF8FFF756FFF0BCBDE8008C2DE98E
:10221000804C9A46934670B491E8380007C810F095
:10222000804F08BF13F0804F03D100F005F8FFF78F
:10223000FFFEF0BCBDE8008C20F07F4780EA030081
:1022400023F07F4C07EB0C03A3F57C5300F0004018
:10225000A3F1FE0392F0000F00F0B38095F0000FA1
:1022600000F077802DE901494FEA11404FEA14460A
:1022700021EA004800FB06FC24EA064708FB06F6B4
:1022800007FB08F800FB07F718EB06484CEB164C69
:102290004FEA124B18EB07484FEA15464CEB174034
:1022A00022EA0B4E0BFB06FC25EA06470EFB06F660
:1022B00007FB0EFE0BFB07F71EEB064E4CEB164C16
:1022C0004FF000061EEB074E4CEB174B18EB0B08BC
:1022D00040F1000018EB0E0B58EB000840F1000035
:1022E0008F1A4FF000013CBFC943661B14BFB5EB0A
:1022F000040C00213CBFC943F61B4FEA17444EEAC9
:102300008E0E27EA04454FEA1C4704FB07622CEABD
:10231000074C05FB07F70CFB05F604FB0CFC16EB62
:10232000074642EB174216EB0C4642EB1C421BEBF6
:10233000060658EB0202414146EA9E0601D5BDE879
:102340000189B619524141EB0101A3F10103BDE836
:1023500001894FEA14454FEA114724EA054621EA6C
:10236000074C05FB07F406FB07F70CFB06F105FB22
:102370000CFC11EB074144EB17444FEA124711EBF9
:102380000C4144EB1C4422EA074C05FB07F206FB18
:1023900007F70CFB06F605FB0CFC16EB074642EBB9
:1023A000174216EB0C4642EB1C456A1854F100012B
:1023B00048BF7047B619524141EB0101A3F1010337
:1023C000704795F0000F37D04FEA11424FEA14479B
:1023D00021EA024624EA074C02FB07F106FB07F755
:1023E0000CFB06F402FB0CFC14EB074441EB174119
:1023F0004FEA154714EB0C4441EB1C4125EA074C0E
:1024000002FB07F506FB07F70CFB06F602FB0CFCCC
:1024100016EB074645EB174516EB0C4645EB1C4201
:10242000121951F1000148BF7047B619524141EBF2
:102430000101A3F1010370474FEA14454FEA114728
:1024400024EA054621EA074C05FB07F106FB07F7DE
:102450000CFB06F24FF0000605FB0CFC12EB0742EA
:1024600041EB174112EB0C4251EB1C4148BF704746
:10247000921841EB0101A3F10103704700F00F0135
:10248000000900EB800001EB4000C0B27047FEE79E
:102490000A21B0FBF1F201FB1202B0FBF1F042EABB
:1024A0000010C0B2704700002DE9F0411F4F204CD2
:1024B00000254FF0010800BF00F04CFAC4F80000FE
:1024C00000F048FA60600221384600F031FA20B985
:1024D000D4E90001801C8842F2D8282002F0EAFFEB
:1024E0000221384600F024FA0028C5F1070108FA55
:1024F00001F019D03043C6B200F02CFAC4F8000045
:1025000000F028FA60600221384600F011FA20B18C
:10251000D4E90001801C8842F2D86D1CEDB2082D70
:10252000CAD33046BDE8F0818643E5E700080140A4
:10253000600000202DE9FF41022000250127CDE9A0
:102540000007CDE90250214E2C466946304600F086
:10255000FFF800220221304600F0F7F9142000F0C5
:10256000E5F801220221304600F0EFF91E2002F0CA
:10257000A1FFCDE901476946304600F0E9F828207F
:1025800002F098FF0221304600F0D2F940B9502005
:1025900002F090FF0221304600F0CAF900B1012597
:1025A00000F0D8F90A4C206000F0D4F960600221F4
:1025B000304600F0BDF920B1D4E90001801C88420A
:1025C000F2D804B02846BDE8F081000000080140C0
:1025D00060000020704772B6FEE7000010B586B0BC
:1025E00004464FF47A72072103A88DE807001648C5
:1025F00001230022D021006800F00CFB9DF80C00A4
:10260000FFF73CFF20709DF80D00FFF737FF60706B
:102610009DF80E00FFF732FFA0709DF80F00FFF746
:102620002DFFE0709DF81000FFF728FF20719DF846
:102630001100FFF723FF60719DF81200FFF71EFFE6
:10264000A07106B010BD00006800002010B590F821
:1026500021100022022905D00421816380F8202066
:10266000012010BD01680B6823F00E030B600168A8
:102670000B6823F001030B6090F84030C46B01211C
:1026800001FA03F3636080F8211080F820201046DF
:1026900010BD000010B590F821100024022903D0CD
:1026A0000421816301243DE001680A6822F00E02E2
:1026B0000A6001680A6822F001020A601A4A016889
:1026C000914201D1012121E0174A1432914201D1F6
:1026D00010211BE0144A2832914201D1891515E0DE
:1026E000114A3C32914201D189140FE00E4A503216
:1026F000914202D14FF4803108E00B4A643291429A
:1027000002D14FF4801101E04FF08071064A083A7F
:102710005160012180F82110002180F82010416BC8
:1027200001B18847204610BD0800024070B504463C
:1027300000F010F90546601C02D0044800780444FB
:1027400000F008F9401BA042FAD370BD3C00002005
:102750002DE9F84FDFF8B891002409F1040A0AF1D5
:10276000040B23460F270BF1040EC9E00125A540F9
:102770002A40AA427DD1674ED1F804C0ACEB0608CE
:10278000B44532D014DCBCF1030F3AD009DCBCF103
:10279000000F2AD0BCF1010F1CD0BCF1020F31D1C7
:1027A0001DE0BCF1110F17D0BCF1120F2AD119E0B6
:1027B000B8F5881F19D006DCB8F5803F15D0B8F5FC
:1027C000801F1FD111E0B8F5001F0ED0B8F5041F0F
:1027D00018D10AE0CB6815E0CB681B1D12E0CB686E
:1027E00008330FE0CB680C330CE08B682BB1012B66
:1027F0004FF0080303D0456104E0042302E00561C3
:1028000000E00023FF2A01D8064601E000F104069B
:102810004FEA840501D9A5F12005D6F8008007FA12
:1028200005FC28EA0C0803FA05F548EA0508C6F88D
:1028300000804D68ED0062D5374DAE6946F0010667
:10284000AE61AD6924F0030605F001050095334D36
:1028500006EB050CDCF80850A607360F07FA06F859
:1028600025EA0805DFF8B880404503D14FF000089D
:1028700017E044E0DFF8AC80404502D14FF001089A
:102880000FE0DFF8A480404502D14FF0020808E0D5
:10289000DFF89880404502D14FF0030801E04FF087
:1028A000040808FA06F848EA0508CCF808804D68DC
:1028B000D9F80060ED034D4601D5164300E096437C
:1028C0002E604D68DAF80060AD03554601D5164319
:1028D00000E096432E604D68DBF80060ED025D4637
:1028E00001D5164300E096432E604D68DEF8006087
:1028F000AD02754601D5164300E096432E60641C78
:102900000D682A46E5407FF431AFBDE8F88F00003E
:1029100000040140000011100010024000000140BE
:1029200000080140000C014000100140001401406B
:102930008068084000D001207047C26821EA020385
:102940000A4043EA0241016170470AB101617047E0
:102950000904FBE701488068704700003C00002044
:1029600070B5040025D094F83D00002520B984F806
:102970003C50204600F00EFB242084F83D002068E7
:10298000016821F0010101602068016841F4004103
:1029900001602068016821F40041016000F0CCFC76
:1029A0004D4A6168914201D84C4900E04C49884247
:1029B00001D2012070BD4B492368B0FBF1F15E6884
:1029C00026F03F060E435E606368934206D94FF4DB
:1029D000967359434FF47A73B1FBF3F12368491CA2
:1029E0001E6A26F03F06314319626168914210D891
:1029F0004900401EB0FBF1F2521CC2F30B02042A44
:102A000001D2042022E0B0FBF1F0401CC0F30B0027
:102A10001CE0A268F2B301EBC10303EB0116431EF5
:102A2000B3FBF6F35B1C43F480431B0549D092B320
:102A300001EBC10202EB0111401EB0FBF1F0401CA2
:102A4000C0F30B0040F4804040F400402168CA69A4
:102A50004CF6FF739A431043C861D4E90710014351
:102A60002068026822F0C00211430160D4E903012A
:102A700001432068826848F2FF339A431143816022
:102A8000D4E9050108432168CA6822F0FF02104317
:102A9000C86001E00EE016E02068016841F0010125
:102AA00001602564202084F83D00256384F83E50B1
:102AB000002070BD01EB4106431EB3FBF6F35B1C27
:102AC000B3E70120C2E701EB4101401EB0FBF1F08A
:102AD000401CC0F30B00B7E7A086010080841E00F5
:102AE00000093D0040420F002DE9F84F1F46904677
:102AF0008A460446DDF82890FFF72CFF054694F837
:102B00003D0020287FD1192301224049204600950D
:102B100001F03AFB002876D194F83C00012872D0ED
:102B2000012084F83C0020680168C90703D10168CE
:102B300041F0010101602068016821F40061016039
:102B4000212084F83D00102084F83E0000262664F1
:102B5000C4F824806785608D20852D48E0622B466F
:102B60004A465146204601F0C9F990B920684169AA
:102B70008069009036E02A464946204601F0B6FBBF
:102B800050B1206C042804D12068016841F4007120
:102B900001600120BDE8F88F606A21680078086153
:102BA000606A401C6062618D491E6185218D491EED
:102BB00089B2218522685369DB435B070BD451B18D
:102BC00000781061606A401C6062608D401E608504
:102BD000208D401E20852A464946204601F0AEFA47
:102BE0000028CED1208D0028C5D154F83D0B0168B6
:102BF00041F400710160202004F81E09E677667731
:102C00000020C7E7FFE70220C4E700000200100031
:102C10000000FFFF2DE9FF4F83B00025DDE91079AB
:102C20009A4693460446DDF848800095FFF792FEE9
:102C3000064694F83D0020287CD1192301228549BD
:102C40002046009601F0A0FA0028F5D194F83C0047
:102C500001286FD0012084F83C0020680168C90772
:102C600003D1016841F0010101602068016821F48D
:102C700000610160222084F83D00402084F83E007D
:102C800025646762A4F82A90608D20857248E0620E
:102C9000CDE9008653465A462046049901F07CF956
:102CA00000287DD1208DDFF8B491202768B101285C
:102CB00014D00228206801681ED041F480610160B0
:102CC0002068416980690090B6E0206841698169A7
:102CD0000091016841F400710160ADE02068016875
:102CE00021F48061016072B62068416981690091B8
:102CF000016841F400710AE041F40061016072B6BC
:102D00002068416981690091016821F48061016056
:102D100062B691E0032868D801280CD00228434607
:102D20004FF000024946204600960FD001F02CFAE1
:102D3000B0BB10E08BE032464146204601F0A3FADA
:102D400070BB20680069616A08706CE001F01CFAD1
:102D500030BB72B634E02068016821F48061016004
:102D600072B620680069616A0870606A401C60621F
:102D7000208D401E2085608D401E6085384846F2BB
:102D8000A8110068B0FBF1F0C0EBC00000EB8000C0
:102D90000090401E009008D020684069C04300E0C9
:102DA00029E040070CD50098F3E744F8305F6773DB
:102DB000A573206940F02000206162B625731AE0F7
:102DC0002068016841F40071016020680069616A4F
:102DD0000870606A401C6062218D491E2185618DEA
:102DE000491E618562B621681BE032464146204695
:102DF00001F049FA18B1012007B0BDE8F08F206852
:102E00000069616A0870606A401C6062218D491E19
:102E10002185618D491E618521684A69D243520727
:102E20000AD409690170606A401C6062208D401EEE
:102E30002085608D401E6085208D00287FF46AAF5C
:102E400084F83D7084F83E5084F83C50D4E702206A
:102E5000D2E70000020010000000FFFF04000100A4
:102E6000480000202DE9FF4F83B09A46DDE9119715
:102E700093460446DDF84080FFF76CFD054694F864
:102E80003D0020287FD1192301224049204600958A
:102E900001F07AF9002876D194F83C00012872D02C
:102EA000012084F83C0020680168C90703D101684B
:102EB00041F0010101602068016821F400610160B6
:102EC000212084F83D00402084F83E00002626643E
:102ED000C4F82480A4F82A90608D20852C48E062F4
:102EE000CDE9007553465A462046049901F0D2F8C0
:102EF00070B930E02A463946204601F0F7F958B15A
:102F0000206C042804D12068016841F4007101603C
:102F1000012007B0BDE8F08F606A21680078086181
:102F2000606A401C6062218D491E89B22185628DD4
:102F3000521E628522685369DB435B070BD469B17B
:102F400000781061606A401C6062208D401E208500
:102F5000608D401E6085208D0028CBD12A463946E1
:102F6000204601F0EBF80028CAD154F83D0B016867
:102F700041F400710160202004F81E09E6776677AD
:102F80000020C6E7FFE70220C3E7000002001000B0
:102F90000000FFFF10B586B0002100910191029161
:102FA000039100680F4988421AD10F4CA06940F084
:102FB0000800A061A069694600F008000490C020E4
:102FC000009012200190032003900848FFF7C0FBF7
:102FD000E06940F40010E061E06900F40010049042
:102FE00006B010BD0054004000100240000C01402B
:102FF0000248816802781144816070473C000020DB
:10300000074810B5016841F010010160032000F08D
:1030100075F80F2000F006F800F024F8002010BD2D
:103020000020024070B50D4D04464FF47A712878A7
:10303000B1FBF0F00A490968B1FBF0F000F062FB67
:1030400048B9102C07D200222146501E00F036F855
:1030500000206C6070BD012070BD00003C000020AD
:10306000480000200C4808B5816941F001018161E8
:10307000816901F001010091C16941F08051C16194
:10308000C06900F0805000900448416821F0E06180
:1030900041F00071416008BD001002400000014095
:1030A000002809DB00F01F02012191404009800047
:1030B00000F1E020C0F8001170470000F0B40E4BA2
:1030C0001B680C46C3F30223C3F10705042D00D986
:1030D0000425191D072901D2002300E0DB1E01266B
:1030E00006FA05F1491E214099409E40761E164081
:1030F0003143F0BC01F000BF0CED00E0064900F0E8
:10310000070208684FF6FF03184040EA0220034A0E
:1031100010430860704700000CED00E00000FA0565
:103120002DE9F84305460078354CC00754D0E069D6
:103130000026C00008D4E06940F08050E061E069FA
:10314000012600F0805000902E480168C90512D475
:103150000168804641F480710160FFF7FBFB074680
:1031600005E000BFFFF7F6FBC01B642823D8D8F8A2
:103170000000C005F6D5206A10F4407021D0A9885F
:1031800001F4407181421CD0206A1F49012220F4C1
:1031900040700A6000220A602062C00711D0FFF769
:1031A000D9FB074641F2883808E000BFFFF7D2FBA1
:1031B000C11B414502D90320BDE8F883206A80077E
:1031C000F4D5206A696820F44070084320621EB17B
:1031D000E06920F08050E0612878800705D56068BC
:1031E000A96820F44040084360602878C00605D5EF
:1031F0006068E96820F48000084360600020DBE735
:103200000010024000700040400442422DE9F047A7
:103210000F46050061D0434E306800F00700B84209
:1032200009D2306820F0070038433060306800F081
:103230000700B84251D128683B4C810712D540079E
:1032400003D5606840F4E06060602878000703D52B
:10325000606840F4605060606068A96820F0F00029
:10326000084360602878C00728D06868012810D01B
:103270002168022810D0890700292EDA616821F020
:10328000030101436160FFF765FB804641F2883925
:103290000DE021688903EFE78901EDE7FFF75AFBAD
:1032A000A0EB0801494502D90320BDE8F08760681A
:1032B000696800F00C00B0EB810FEFD1306800F0CE
:1032C0000700B8420BD9306820F00700384330605F
:1032D000306800F00700B84201D00120E5E7287807
:1032E000400705D56068E96820F4E0600843606045
:1032F0002878000706D56068296920F4605040EA04
:10330000C100606000F038F86168084AC1F3031139
:10331000515CC8400649086006480068FFF782FE15
:103320000020C2E700200240001002400A600008AE
:103330004800002040000020044805490068496812
:10334000044AC1F30221515CC84070474800002084
:10335000001002401A6000080448054900684968E6
:10336000044AC1F3C221515CC840704748000020A4
:10337000001002401A60000812A185B00FC98DE844
:103380000F0014A0144A006804905168134801F01B
:103390000C03042B10D0082B0ED1C1F38343C903B7
:1033A0001DF803000AD5516804AAC1F34041515CDD
:1033B0000A4A5043B0FBF1F005B070470849484352
:1033C000FAE7000002030405060708090A0B0C0DC2
:1033D0000E0F1010010200000010024000127A00CF
:1033E00000093D002DE9F84F040070D02078C04D51
:1033F000C00749D06868C0F38100012807D0686819
:10340000C0F38100022809D16868C00306D5286886
:10341000800339D560680028E7D035E06068B0F5F2
:10342000803F0BD010B1B0F5A02F11D0286820F448
:1034300080302860286820F4802002E0286840F46A
:1034400080302860606890B1FFF784FA06460AE091
:10345000286840F480202860F0E700BFFFF77AFA80
:10346000801B642873D828688003F7D50CE0FFF729
:1034700071FA064605E000BFFFF76CFA801B64286E
:10348000F0D828688003F7D420789A4E80074FF050
:1034900001094FF0000839D5686810F00C0F07D00B
:1034A0006868C0F38100022809D16868C00306D4A7
:1034B0002868800714D52069012808D110E0206908
:1034C000B0B1C6F80090FFF745FA074605E00AE1FB
:1034D000FFF740FAC01B0228C4D828688007F7D538
:1034E0002868616920F0F80040EAC10028600DE01A
:1034F000C6F80080FFF72EFA074604E0FFF72AFA25
:10350000C01B022823D828688007F7D4207800073A
:103510002CD57948A169D9B1C0F80090FFF71AFA03
:10352000074604E0FFF716FAC01B02280FD8686AA6
:103530008007F7D571484FF4FA510068B0FBF1F0FD
:10354000009000BF0098411E0091FAD20EE080E08A
:10355000C0F80080FFF7FEF9074604E0FFF7FAF92C
:10356000C01B022875D8686A8007F7D42078400706
:1035700060D5E8690027C00008D4E86940F08050B1
:10358000E861E869012700F0805000905C4801681C
:10359000C90513D40168834641F480710160FFF7C7
:1035A000D9F9824606E000BFFFF7D4F9A0EB0A0084
:1035B00064284ED8DBF80000C005F5D5E068012886
:1035C0000AD008B1052813D0286A20F0010028622B
:1035D000286A20F0040002E0286A40F00100286216
:1035E000E06841F2883B98B1FFF7B4F982460BE0FE
:1035F000286A40F004002862EEE700BFFFF7AAF94E
:10360000A0EB0A0159455AD8286A8007F6D50CE084
:10361000FFF7A0F9824605E0FFF79CF9A0EB0A014D
:1036200059454CD8286A8007F6D41FB1E86920F0C4
:103630008050E861E06988B36968C1F381010229BB
:1036400044D00228C6F8608004D0FFF783F904460E
:1036500038E034E0FFF77EF9074604E0FFF77AF937
:10366000C01B02282BD828688001F7D4206AB0F547
:10367000803F05D16868A16820F400300843686085
:10368000D4E908010843696821F4741108436860AB
:10369000C6F86090FFF75EF9044606E025E000BF3B
:1036A000FFF758F9001B022809D828688001F7D5D0
:1036B0001BE000BFFFF74EF9001B022802D90320D0
:1036C000BDE8F88F28688001F4D40EE00128F7D017
:1036D0006868226A00F48031914204D1616A00F482
:1036E0007010884201D00120EAE70020E8E70000DE
:1036F0000010024000004242800442424800002084
:103700000070004010B5401EB0F1807F01D3012051
:1037100010BD4FF0E02460610F21601701F0ECFB59
:103720000020A06107202061002010BD70B590F836
:103730003C20012A26D0012480F83C40022280F857
:103740003D2003685A689D6822F070060A6832437B
:103750005A600D4B02689A4208D0B2F1804F05D0F2
:103760000A4B9A4202D00A4B9A4204D1496825F08A
:1037700080031943916080F83D40002180F83C109F
:10378000084670BD022070BD002C014000040040BE
:103790000008004010B5040003D094F83D0010B1BB
:1037A00007E0012010BD002084F83C00204600F016
:1037B0001FF8022084F83D00211D206801F082F9E5
:1037C000012084F8460084F83E0084F83F0084F825
:1037D000400084F8410084F8420084F8430084F8F3
:1037E000440084F8450084F83D00002010BD00002E
:1037F00008B500680649884208D10648816941F445
:1038000000618161806900F40060009008BD0000E3
:10381000002C01400010024090F83D10012901D019
:1038200001207047022180F83D1000680B49884252
:1038300008D0B0F1804F05D00949884202D009492B
:10384000884204D1816801F00701062903D001688C
:1038500041F001010160002070470000002C014090
:10386000000400400008004070B5044690F83C0099
:10387000012817D0012584F83C50022084F83D002F
:103880002068826822F0770222F47F428260086812
:10389000502830D00DDC20284DD005DC98B31028FE
:1038A0003BD148E0022070BD302844D0402834D1BC
:1038B00039E0602828D0702806D0B0F5805F2CD081
:1038C000B0F5005F29D10AE0CB68D1E90121206879
:1038D00001F02EF92068816841F0770109E0CB689A
:1038E000D1E90121206801F023F92068816841F4C1
:1038F0008041816011E0CA684968206801F02AF9B6
:103900005021206807E016E0CA684968206801F085
:1039100032F96021206801F015F984F83D5000204B
:1039200084F83C0070BDCA684968206801F012F94B
:1039300040212068EFE7226801461046EBE7704718
:1039400070470000F8B5026804461068D1685369F2
:1039500010F00F0F4FF0000553D003F0010601F4F3
:10396000907737435FD0C20705D0CA0503D5226CD4
:1039700042F001022264420705D5DA0703D0226C27
:1039800042F002022264820705D5DA0703D0226CD6
:1039900042F004022264020707D501F020023243FC
:1039A00003D0226C42F008022264226C002A34D038
:1039B000800604D5880602D5204601F04DF920681E
:1039C0004069216CC0F38010090700D430B3204651
:1039D00001F02AF92068416949061BD5416921F0A7
:1039E00040014161A06BA8B158494163A06BFEF74B
:1039F00051FE002811D0A06B416B01B0BDE8F04032
:103A0000084783060FD58B060DD52046BDE8F84044
:103A100001F022B92046FFF793FFF8BD2046FFF7DB
:103A20008FFF2564F8BD266B2023012E52D1C606D8
:103A300050D5CE064ED510685068009050694006AB
:103A40002AD5A16B086840680004000CEAD0A68D56
:103A50008642E7D9E0858869202818D0D06820F40C
:103A60008070D0602068416921F0010141612068C7
:103A7000416921F04001416184F83E3025632068AE
:103A8000C16821F01001C160A06BFEF7DFFDA08DC1
:103A9000E18D401A81B219E0A08DE18D401A81B20A
:103AA000E08D0028BED00029BCD0D06820F49070F2
:103AB000D0602068426922F00102426184F83E3001
:103AC00025632068C26822F01002C2602046FFF71A
:103AD00036FFF8BD05062BD50D0629D594F83D0017
:103AE0002128F6D1A068B0F5805F01D12069B0B17E
:103AF000206A411C2162216800784860E08C401EE9
:103B00000004000CE084E4D12068C16821F0800149
:103B1000C1602068C16841F04001C160F8BD206A01
:103B20000088C0F308005060206A801C2062E5E72E
:103B30004006F3D54806F1D5D168204621F0400172
:103B4000D16084F83D3000F0B8F9F8BD194C000898
:103B500070B5040004D094F83D00002510B106E0D3
:103B6000012070BD84F83C50204600F023F824204A
:103B700084F83D002068C16821F40051C1602046EE
:103B800001F0C6F82068016921F4904101612068C4
:103B9000416921F02A0141612068C16841F4005166
:103BA000C1602564202084F83D0084F83E00002098
:103BB00070BD0000F0B585B000240094019402941B
:103BC00003940368424F022042490322424D4602B9
:103BD000BB4225D18B6943F480438B618B6903F42D
:103BE000804304938B6943F004038B6189690392DA
:103BF00001F0040104910102CDE900106946284654
:103C0000FEF7A6FDCDE90064694628460294FEF75A
:103C10009FFD002211462520FFF750FA252028E0BD
:103C20002E4FBB4229D1CB6943F40033CB61CB6922
:103C300003F4003304938B6943F004038B618969B7
:103C4000039201F0040104910421CDE900106946BA
:103C50002846FEF77DFD0820CDE900046946284688
:103C60000294FEF775FD002211462620FFF726FA82
:103C70002620FFF715FA05B0F0BD194DAB42FAD179
:103C8000CB6943F48023CB61CB6903F48023049395
:103C90008B6943F008038B618969124D01F00801BB
:103CA000CDE90321CDE9006069462846FEF750FDC5
:103CB000E814CDE90004694628460294FEF748FD61
:103CC000002211462720FFF7F9F92720D1E700004D
:103CD000003801400010024000080140004400404C
:103CE00000480040000C01402DE9F84F044690F8D0
:103CF0003E009A4616460D46202853D1FDB1F6B136
:103D000094F83C0001284DD0012084F83C000027A5
:103D10002764222084F83E002763FEF71BFEA68559
:103D20008146E685A0684FF48058404501D120695E
:103D300040B12E465FF0000584F83C7027E001207A
:103D4000BDE8F88F0026F7E74B46002220212046E9
:103D5000CDF800A001F053F808B10320F0E726B138
:103D6000A06840451BD038B108E020684068C0F327
:103D7000080025F8020B07E0206980B12068406840
:103D800000F07F0006F8010BE08D401EE085E08D1D
:103D90000028D9D1202084F83E000020D0E72068F8
:103DA0004068EFE70220CBE790F83E30202B0ED1A1
:103DB00059B152B190F83C30012B08D0012380F862
:103DC0003C300023036300F0FFBF01207047022056
:103DD0007047000010B50068084988420DD1FEF711
:103DE000B9FD0749886100F01FFD05490122BDE8C2
:103DF0001040891D0348FFF7D7BF10BD00380140B0
:103E000000000020FC0400202DE9F843044690F84F
:103E10003D001F4616460D4620284CD1C5B1BEB107
:103E200094F83C00012846D0012084F83C004FF073
:103E30000008C4F84080212084F83D00FEF78AFD88
:103E4000A6848146E684A068B0F5805F03D004E0D4
:103E50000120BDE8F883206928B12E465FF00005F7
:103E600084F83C800EE00026FAE78021204600F02E
:103E7000C6FFA0B9AEB116F8010B21684860E08C0E
:103E8000401EE084E08C4B464FF000020097002873
:103E9000EBD14FF04001204600F0B1FF30B10320DC
:103EA000D7E735F8020BC0F30800E6E7202084F8D6
:103EB0003D000020CDE70220CBE77047FEE7000081
:103EC00001490860704700006800002001684A69E5
:103ED000D24352050FD46FF480624A61002140F84A
:103EE000301F202242738173026942F00402026192
:103EF000017301207047002070470000F8B50446A8
:103F0000C06A1E460D461746082807D0012805D06E
:103F100010F5803F02D0206B122804D12068016880
:103F200041F480710160134600224FF001112046D8
:103F3000009600F029F940B120680068C00502D55C
:103F40004FF4007020640320F8BD2069B0F5804F65
:103F50000ED00620216800EAD51040F0F00008617C
:103F600033463A460B49204600F042F978B902E060
:103F700005F0FE0000E0E8B221680861054933461B
:103F80003A46891F204600F033F90028DCD0012092
:103F9000F8BD0000080001002DE9F84F0446006854
:103FA00089460B9D01689846174641F4806101607F
:103FB0002068016841F48071016000954FF0011B99
:103FC0000022594620460A9B00F0DEF84FF4007AA2
:103FD00040B120680068C00501D5C4F840A00320A6
:103FE000BDE8F88F216809F0FE0008612B462849DA
:103FF00020460A9A00F0FCF8F0BB2068416980690D
:1040000000902A4620460A9900F070F940B1206CD1
:1040100004283AD12068016841F40071016034E05D
:10402000FEB2B8F1010F09D02168380A08612A46AA
:1040300020460A9900F05AF90028E8D12068066164
:104040002A4620460A9900F051F90028DFD120685D
:10405000016841F4807101600095002259462046B4
:104060000A9B00F091F80028B3D1216809F0FF0005
:1040700040F00100086100E007E02B4604492046BB
:104080000A9A00F0B5F80028AAD00120A8E700009D
:10409000020001002DE9F843044600680D46DDE901
:1040A000089701689846164641F4807101604B46B6
:1040B00000224FF001112046009700F065F848B14A
:1040C00020680068C00502D54FF40070206403200A
:1040D000BDE8F883216805F0FE0008613B464A46CA
:1040E0001549204600F084F888B920684169806944
:1040F00000903A464946204600F0F8F848B1206C56
:10410000042804D12068016841F400710160012095
:10411000DEE7F5B2B8F1010F09D02168300A086175
:104120003A464946204600F0E1F80028E7D12068E9
:1041300005610020CCE700000200010070B51646C2
:104140000D4604460DE02046FFF7C0FE08B10120F1
:1041500070BD681C05D0FEF7FDFB801BA84207D888
:1041600035B120684069C0434007ECD4002070BDE1
:10417000002044F8300F20216173A073216941F0C1
:10418000200121612073E2E72DE9F0471E469046A9
:104190000D460446C1F30747DDF8209008E0701C87
:1041A00006D0FEF7D7FBA0EB0900B0420FD876B1DE
:1041B0002068012F18D0806925EA00000004000C57
:1041C00014D000214145EAD00020BDE8F08700204E
:1041D00044F8300F20216173A073216941F0200160
:1041E000216120730120F0E74069E5E70121E9E75B
:1041F0002DE9F0479A4691460E46044600254FF0B9
:104200002008C1F3074725E020684069C043400506
:1042100014D42068016841F40071016021686FF4D2
:1042200080604861256384F83D8084F83E50206CAE
:1042300040F00400206484F83C501FE0B9F1FF3FD7
:1042400008D0FEF787FBA0EB0A0149450CD8B9F16D
:10425000000F09D02068012F13D0806926EA0000E2
:104260000004000C0BD0CFE744F8305F84F80D80D9
:10427000A573206940F02000206125730120BDE86E
:10428000F0874069EAE72DE9F041002590460E46A7
:104290000446202717E04069C043C0060CD454F8F8
:1042A000301B6FF01000486144F810596777A5770C
:1042B000206A2062257717E0FEF74CFBA0EB080090
:1042C000B04208D83EB120684169C9434906E2D4EA
:1042D0000020BDE8F08144F8305F6773A573206962
:1042E00040F02000206125730120F2E770B51646EA
:1042F0000D4604460DE02046FFF7E8FD08B1012019
:1043000070BD681C05D0FEF725FB801BA84207D8AE
:1043100035B120684069C0430006ECD4002070BD70
:10432000002044F8300F20216173A073216941F00F
:10433000200121612073E2E710B50021084600F05A
:10434000F7F8064800F0EAF80021012000F0F0F844
:104350000248BDE81040B43000F0E0B86C00002026
:1043600010B5FEF7E7F81C4C58B1FEF79DF8A070A9
:10437000FEF79AF8E070FEF797F82071FEF794F8D0
:1043800060716379227915A11948FBF7F7FF184886
:104390006379227917A17830FBF7F0FF1448783061
:1043A00000F042FE01F0C0FB60621148E378A278A1
:1043B00012A1B430FBF7E2FF0D48E378A2780DA11B
:1043C0009630FBF7DBFF0A48963000F02DFE01F037
:1043D000ABFBA06210BD000000000020544D503A1D
:1043E0002025642E25642043202020494E00000013
:1043F0006C00002025642E256400000052483A20FD
:104400002025642E256420252520444F4F5200008E
:104410001CB500F0F00141F00C028DF8042041F0D1
:10442000080100018DF8051040F00C018DF8061010
:1044300040F008008DF807004FF47A7000900423D4
:1044400001AA4E210148FEF74FFB1CBD600400206D
:1044500010B50120FFF7DCFFBDE810400320FEF798
:1044600065B910B52820FEF761F93020FFF7D0FFBD
:104470000F20FEF75BF93020FFF7CAFF0F20FEF791
:1044800055F93020FFF7C4FF0A20FEF74FF920202E
:10449000FFF7BEFF0A20FEF749F92820FFF7B8FF13
:1044A0000A20FEF743F90820FFF7B2FF0A20FEF7C3
:1044B0003DF90120FFF7ACFF0A20FEF737F906208F
:1044C000FFF7A6FF0A20FEF731F90C20FFF7A0FF47
:1044D000BDE810400A20FEF729B900001CB500F025
:1044E000F00141F00D028DF8042041F009010001B6
:1044F0008DF8051040F00D018DF8061040F0090010
:104500008DF807004FF47A700090042301AA4E2121
:104510000148FEF7E9FA1CBD6004002010B504460E
:1045200002E0641CFFF7DAFF20780028F9D110BD03
:1045300001F00F0120B141F0C00000BFFFF768BFDC
:1045400041F08000FAE700002DE9F04186B0002438
:1045500027480094019402940394816941F010016A
:104560008161816901F010010491816941F02001AC
:104570008161816901F020010491816941F00401A8
:104580008161816901F004010491816941F00801B0
:1045900081618069174F00F008004FF400550490C6
:1045A000002229463846FEF7D0F9DFF84C80002279
:1045B00002214046FEF7C9F900950226012503961F
:1045C000CDE9015469463846FEF7C2F8CDE90065E9
:1045D000CDE9024669464046FEF7BAF810208DE85C
:1045E000310069464046FEF7B3F806B0BDE8F081F9
:1045F0000010024000100140000801400D4810B5B5
:104600000B4901600C49416000214FF480428160F8
:10461000C0E9031241618161C1610162FEF7A0F945
:10462000002803D0BDE81040FDF7D5BF10BD000045
:104630000054004060040020A086010010B586B040
:10464000002417480094019402940394049413499D
:10465000059401603121C0E901144CF24F31C0E9E9
:10466000031444618461FFF795F808B1FDF7B3FFC7
:104670004FF48050009069460948FFF7F5F808B1FB
:10468000FDF7A9FF049404A905480594FFF74EF827
:10469000002801D0FDF79FFF06B010BD002C01409F
:1046A000B40400200C4810B50A4901604FF4E13110
:1046B0004160002181600C22C160C0E90412816167
:1046C000C161FFF745FA002803D0BDE81040FDF7AF
:1046D00082BF10BD00380140FC0400200C4810B51A
:1046E0000A4901604FF4E1314160002181600C22F0
:1046F000C160C0E904128161C161FFF729FA002895
:1047000003D0BDE81040FDF766BF10BD0044004077
:10471000400500200C4810B50A4901604FF41651BD
:104720004160002181600C22C160C0E904128161F6
:10473000C161FFF70DFA002803D0BDE81040FDF776
:104740004ABF10BD0048004084050020FEE7FEE798
:1047500010B5124CE06901F05FFB02460B4610A158
:104760001448FBF70BFE00210846FFF7E1FE114855
:10477000FFF7D4FE206A01F04FFB02460D480B46BE
:104780000DA11E30FBF7FAFD00210120FFF7D0FE3E
:104790000848BDE810401E30FFF7C0BE00000020F2
:1047A000544D503A20252E3166204320204F555439
:1047B00000000000A800002052483A2020252E3199
:1047C0006620252520444F4F5200000010B5642379
:1047D0001E2211491148FFF787FA0F490422891D4B
:1047E00001F1E000FBF7AFFF0B48E63000F01CFCE6
:1047F00001F09AF90A4C084904221831E06101F1EC
:10480000E700FBF7A0FF0448FF3000F00DFC01F0CB
:104810008BF9206210BD00008A0000208405002072
:104820000000002070470000114810B582790A2A64
:1048300005D0104BC16A5A54491CC16210BD0D48C5
:10484000FBF7B2FE82B24FF47A74234609490A4854
:10485000FFF7DAFA2346012208A10748FFF7D4FA46
:10486000044800F013FBBDE8104000F0E3BC00007A
:104870000000002096030020400500200A000000F0
:1048800000B5034685B00078FDF702FE8DF80C00F8
:104890005878FDF7FDFD8DF80D009878FDF7F8FDCF
:1048A0008DF80E00D878FDF7F3FD8DF80F0018791C
:1048B000FDF7EEFD8DF810005879FDF7E9FD8DF854
:1048C00011009879FDF7E4FD8DF812004FF47A722B
:1048D000072103A88DE80700044801230022D02106
:1048E0000068FEF7BFFA05B000BD000068000020B8
:1048F000704700002DE9F0479A46424B89469046A2
:1049000000210A46A3F5C874A3F59675A3F1C8065D
:10491000A3F164075A5462546A5472547A54491C7D
:104920006429F7DB01F078FA02460B4636A13848D5
:10493000FBF724FD484601F06FFA024634480B4667
:1049400031A16430FBF71AFD404601F065FA0246DA
:104950002C480B462CA1C838FBF710FD504601F03F
:104960005BFA024627480B4627A16438FBF706FD91
:1049700028A12448FBF782FE25492248FBF77EFE4A
:1049800026A12048FBF77AFE25A11E48FBF776FEFC
:104990001F491C486431FBF771FE20A11948FBF741
:1049A0006DFE21A11748FBF769FE16491548C83965
:1049B000FBF764FE19A11348FBF760FE1CA1114828
:1049C000FBF75CFE0F490F486439FBF757FE1AA14D
:1049D0000C48FBF753FE0B48FBF7E6FD82B24FF4A1
:1049E0007A74234607491548FFF70EFA0548FBF786
:1049F000DBFD2346BDE8F04782B202491048FFF7CD
:104A000003BA000032030020252E316600000000AA
:104A1000A20100207B2241223A220000222C000029
:104A20002242223A220000002243223A22000000C1
:104A30002244223A22000000227D0A004005002084
:104A4000FC040020FEF7D4BA30B593B028216846A4
:104A5000FBF752FE14210AA8FBF74EFE00250120A9
:104A60000F9510951195010412958DE8230004907F
:104A70004FF4E010CDE90810022407946846FEF7D1
:104A8000B1FC08B172B6FEE70AA90F2081E8310037
:104A90004FF48060CDE90D0502210AA8FEF7B6FBB0
:104AA00008B172B6FEE74FF4004011900F940FA8C2
:104AB000FEF736FB002801D072B6FEE713B030BD1A
:104AC00070470000F0B50268164B174C174D4FF0B9
:104AD0008047984205D0B84203D0A04201D0A842F6
:104AE00003D122F070064A683243984205D0B8429A
:104AF00003D0A04201D0A84203D122F44074CA6876
:104B000022434C6922F08002224302608A68C2621A
:104B10000A688262984201D10969016301214161F9
:104B2000F0BD0000002C01400004004000080040DF
:104B300010B5846842EA032224F47F440A432243E6
:104B4000826010BD826822F070020A4342F00701C1
:104B50008160704710B5036A046A24F0010404629E
:104B6000846924F0F00444EA021423F00A020A43A0
:104B70008461026210BD10B5036A23F01003036262
:104B80008369046A23F4704343EA023224F0A003E9
:104B900043EA01118261016210BD000038B513487B
:104BA000FDF71CFD114C12A1A079009063792279C8
:104BB0001448FBF7E3FB2078009012486378A27852
:104BC00011A11930FBF7DAFB03210020FFF7B0FC3D
:104BD0000C48FFF7A3FC04210120FFF7A9FCBDE866
:104BE000384008481930FFF799BC00003400002015
:104BF000253032642F253032642F32302530326434
:104C0000000000003E010020253032643A25303299
:104C1000643A25303264000010B5406A0021C18535
:104C2000C184FEF78DFE10BD0168CA6822F490723F
:104C3000CA6001684A6922F001024A61016B0129D8
:104C400004D10168CA6822F01002CA60202180F8ED
:104C50003E1000210163704708B590F83E102229EC
:104C600001D0022008BD82684FF480539A4201D1DE
:104C7000016921B1816A9A421BD04AB10AE00268F7
:104C8000816A5268C2F308020A80816A891C08E0BE
:104C9000026972B10268526802F07F020A70816A8A
:104CA000491C8162C18D491E0904090CC18503D0CC
:104CB00019E002685268F1E70168CA6822F0200230
:104CC000CA600168CA6822F48072CA6001684A69D1
:104CD00022F001024A61202180F83E10016B012977
:104CE00003D0FFF777F8002008BD002101630168B9
:104CF000CA6822F01002CA6001680A68D20602D5AA
:104D00000A6849680091818DFEF719FEEBE7000003
:104D100070B5044600680169E26821F4405111430E
:104D200001612169A0680843616908432168CA6874
:104D300041F20C639A430243CA6020684169A26948
:104D400021F44071114341611E492068884202D11B
:104D5000FEF702FB01E0FEF7EFFA00EBC00101EB0A
:104D60000012606864218000B2FBF0F3B3FBF1F342
:104D70006FF018067343B2FBF0F5B2FBF0F605EBEB
:104D80008305322303EB0515B5FBF1F5B6FBF1F610
:104D900005F0F00505EB0615B2FBF0F6B2FBF0F0FE
:104DA000B0FBF1F06FF01802504306EB800003EB0C
:104DB0000010B0FBF1F0216800F00F00284488607B
:104DC00070BD00000038014081628285C2850021EB
:104DD0000164222280F83E2080F83C100168CA68F5
:104DE00042F48072CA6001684A6942F001024A6175
:104DF0000068C16841F02001C160002070472DE9C2
:104E0000F041984617460E460446069D1DE0681C74
:104E10001BD02DB1FDF79EFDA0EB0800A84214D9D0
:104E20002068C16821F4D071C1602068416921F017
:104E300001014161202084F83D0084F83E000020FB
:104E400084F83C000320BDE8F0812068006836EA61
:104E5000000004D00020B842D9D00020F3E70120A0
:104E6000F9E700000148FEF76DBD0000FC040020DA
:104E70000148FEF767BD0000400500200148FEF72D
:104E800061BD000084050020FEE7000010B500F0C1
:104E90002BF90C4C0028206313D00BA100F016F95D
:104EA00038B104F108000FC8FFF724FDFDF752FDEB
:104EB000A061FDF74FFDA061206BBDE8104000F040
:104EC000E1B810BD0000002053454E440000000032
:104ED000490050EAC12018BF04204A0D18BF40F015
:104EE000010040F2FF72B2EB515F08BF40F00200D8
:104EF000012808BF052070470907090E002804DBB8
:104F000000F1E02080F80014704700F00F0000F17D
:104F1000E02080F8141D704740F2013200204FF06D
:104F2000E04101F026B80000024A0020110701F01C
:104F300020B8000001FDFFFF10B50446D1E90001D3
:104F400000F002F8206010BDF8B504460D466A4630
:104F500000F09AF900987E30009000281EDC0022B4
:104F600013462046294600F025FE17D0002140F6C2
:104F700008004FF0000006462046294600F0D4FD08
:104F8000044640F6080006EA00014FF0000034F045
:104F9000004004BF0220FBF7A4FC29E00098FF2892
:104FA00028DB002108464FF0000000F440060022F4
:104FB00013462046294600F0F9FE8CBF0025012546
:104FC0000220FBF78EFC4FF0FF4446B1002D0CBFD2
:104FD0004FF400004FF48000B04218BF084C042189
:104FE00008464FF00000002D04BF84F00040F8BDDB
:104FF0002046F8BD20462946BDE8F84000F094BDA3
:10500000FFFF7F7F10B504460A46D4E90003194626
:1050100000F0A3F9C4E9000110BD30380A2801D21C
:10502000012070470020704730B583B00446FBF77D
:1050300053FC05460020CDE90000024621466846A3
:10504000FCF796F92846FBF74CFCDDE9000103B0BC
:1050500030BD10B530B1036823B1D0E901219142D0
:1050600001D204E0002010BD491C816020B19142B2
:1050700002D25C5C202CF7D99142F4D1491E8160A8
:1050800010BD000070B504460F4E19E0A0892568D8
:10509000C0050AD4A06820B1FFF7F4FFA089C005BD
:1050A00003D4206908B171688847A089800503D4BA
:1050B000206A08B1716888477168204688472C4685
:1050C000002CE3D170BD000054000020002200F04D
:1050D00007B910B5016828208847040002D02821AC
:1050E000FBF70AFB204610BD0022114600F06EB807
:1050F0002DE9F04788B00F4604469A4616461C2113
:105100006846FBF7F9FA2F480025002C056045603A
:1051100055D08146E7B3CDE900470295D9E902129F
:10512000D9F810000491CDE9052009F10800FFF736
:10513000D0FF5FEA00082BD000986F4608B10298B4
:1051400008B100270BE00198042808D903221EA10A
:105150000098FBF748FA10B90298C01C0290384634
:10516000FFF777FF0146404600F0BCFB68B1BAF19B
:10517000000F13D06846FFF76CFFDDE901018142A3
:1051800003D202990098405C40B14046FFF77AFF95
:10519000DDE9011088420AD205460BE01EB10299F2
:1051A000009808443060404608B0BDE8F087081E0B
:1051B00000D0451E0EB160193060C9E900450020DD
:1051C000F2E700004C000020EFBBBF0070B51546B1
:1051D0000E46040009D0FBF7E7F9411C2B46324686
:1051E0002046BDE87040FFF783BF002070BD00007F
:1051F00010B50E48FFF718FF00F096FC0C4CA060AD
:105200000A488C38FFF710FF00F08EFC2061074839
:105210001930FFF709FF00F087FCE06003486E38A3
:10522000FFF702FF00F080FC606110BD70010020FC
:105230000000002010B5064C0021064A0846E16235
:105240001154401CC828FBDBFDF784FBA06110BD96
:10525000000000209603002010B5FDF77BFB084CF2
:10526000A169401AB0F57A7F09D34FF4005105487F
:10527000FDF763FBFFF7BCFFFDF76CFBA06110BD02
:10528000000000200010014010B5144600222260EA
:10529000114A21F000439342A8BF10BD53EA000217
:1052A00008BF10BDB3F5801FA8BF226807DA3622F9
:1052B00000F05FFE6FF0350221F000432260DFF85E
:1052C0001CC06FF31E510CEB23531A4441F0FF51E5
:1052D00041F00051226010BD0000F07F02FCFFFF92
:1052E0002DE9F0418846A8B3B8F1000F33D08468A7
:1052F0000AB90AE024686CB3216A59B34046FBF747
:105300004DFA0028F6D120E024681CB3266A5FEA33
:105310000805F9D0002EF7D0B54218D002E098B1B8
:105320006D1C761C2878FBF71BF807463078FBF7D6
:1053300017F887422878F2D0FBF712F80546307844
:10534000FBF70EF88542DFD124B1206A10B1204668
:10535000BDE8F081FFE70020FAE72DE9F0410646BD
:105360000C4640F2FF75174635EA14502BD0002248
:105370001346304600F01EFC25D03A463046214602
:1053800000F0F7FD06460C4635EA145010D0002216
:105390001346304600F00EFC15D10220FBF7A1FAAF
:1053A000FFF7C2FD0A46214662F31E01BDE8F08107
:1053B0000220FBF796FAFFF7AFFD0A46214662F39B
:1053C0001E01BDE8F08130462146BDE8F0810000B5
:1053D000FDF716FEFFF738FBFFF7B6F8FFF70EF9FB
:1053E000FFF72CF9FFF75EF9FFF778F9FFF792F96D
:1053F0002B48FEF765FD2B48FEF70EFAFFF731F854
:105400002948FFF73DFA284901222E392748FEF79F
:10541000CBFCFDF79FFA244C254D343C0026A061BF
:1054200010212846FDF784FA50B9C820FDF77EF90F
:1054300010212846FDF77CFA08B9607830B1667013
:10544000207801281DD0022822D010E01021284603
:10545000FDF76EFA0028F9D02078401C207001205A
:105460006070FEF7F5FF20780228E9D92670FFF773
:1054700095FBFEF775FFFFF7A9F900BFFFF7ECFEFC
:10548000CEE7FEF76DFFFFF7A1F9FEF755FFF5E751
:10549000FEF766FFFFF79AF9FFF75AF9EEE700000B
:1054A00060040020B404002034000020FC0400202C
:1054B00000080140044900220B685A6209684A6AE0
:1054C0008242FCD370470000B40400202DE9F04173
:1054D00007460025C8680C462E46B0F57A7F5BD299
:1054E000401CE0602168A068095C5B2954D1401C25
:1054F000A0602046FFF7ADFD4CB1D4E90110884211
:1055000003D22268125C5D2A33D0884203D3A0689C
:10551000401EA06040E0401E04F11008A06040461C
:10552000FFF7D7FD98B30DB3306046600646A0681C
:10553000401CA0602046FFF78CFD2146304600F05D
:10554000D1F930B32046FFF784FD14B3D4E901103C
:10555000884203D22168095C2C29E0D0626890421D
:1055600017D22168085C5D2813D102E005462E465B
:10557000DDE7E068401EE06005B16E602020C7E90D
:105580000250A068401CA0600120BDE8F081FFE748
:1055900015B12846FFF776FD0020F6E7034610B563
:1055A00000200246995CA1F13004092C01D8303862
:1055B0000AE0A1F14104052C01D8373804E0A1F13B
:1055C0006104052C08D857380844032A00D200018A
:1055D000521C042AE6D310BD002010BD2DE9F04175
:1055E00092B04FF0000506460C004FF02E032846FF
:1055F00010953CD02168D1B36A4627E0276839442A
:10560000415C34291BD00ADCA1F12B07092F23D2DE
:10561000DFE807F015221517221515151500382992
:105620000DD006DC35290AD0362908D0372913D108
:1056300005E0392903D0452901D065290CD1115441
:1056400000E01354401C3F2806D22CB1A168D4F8C6
:1056500004C00F186745D1D31554904610A91046C1
:1056600000F0BEF90F4610990546884503D1002089
:1056700012B0BDE8F081C6E90657114A114B284621
:10568000394600F093FB02D86FF000400DE0002295
:105690000D4B2846394600F0F9FA02D84FF0004089
:1056A00003E02846394600F0C1FA70610820F06036
:1056B000109AA168A2EB08000844A0600120D7E777
:1056C0000000C0FFFFFFDF410000E0C12DE9F04115
:1056D00007460026C8680C463546B0F57A7F78D272
:1056E000401CE060002C74D0D4E90110884270D2D4
:1056F0002168095C7B296CD1401CA0602046FFF723
:10570000A8FCD4E90110884203D22268125C7D2AE9
:105710004CD08842A0F10100A0605AD204F11008D8
:105720004046FFF7D6FCE8B3F6B128604560054671
:10573000A068401CA0602046FFF78BFC214628464D
:1057400000F049F878B32046FFF783FC2869286207
:10575000002028613CB3D4E90110884236D2216888
:10576000095C3A2932D102E006463546E0E7401CA2
:10577000A0602046FFF76DFC2146284600F0B2F8F5
:1057800088B12046FFF765FCD4E90110884203D2B6
:105790002168095C2C29C3D06268904216D2216826
:1057A000085C01E011E011E07D280FD1E068401EA7
:1057B000E06006B175604020C7E90260A068401C47
:1057C000A0600120BDE8F08103E016B13046FFF78C
:1057D00059FC0020F6E72DE9F84380468B680868FD
:1057E0004FF00009C418CDF8009008680E46651CFB
:1057F000C15C641C22296ED10022716808E0BCF1F2
:105800005C0F04D17F1C8F4265D2521C641C641C47
:10581000271A8F4204D294F800C0BCF1220FEED1B7
:10582000271A8F4257D22178222954D11844201A9E
:10583000801A3169401C884707004CD0009737E038
:1058400029785C2905D000986D1C00F8011B009098
:105850002EE00220611B012939DB6A78662A14D008
:1058600008DC222A12D02F2A10D05C2A0ED0622AFD
:105870002DD108E06E2A0ED0722A0ED0742A0ED0D6
:10588000752A24D10DE0082200E00C22009901F8CD
:10589000012B00910BE00A22F8E70D22F6E709221E
:1058A000F4E76A462146284600F0A8F878B1054496
:1058B000A542C5D3009981F800901021C8E90317CB
:1058C0003068201A401CB0600120BDE8F88317B191
:1058D00071693846884715B13068281AB0600020D1
:1058E000F3E7000070B50C0005465ED02068002884
:1058F0005BD0A16863680A1D9A4205D80844042257
:1059000031A1FAF770FE78B3A0686268411D0126E4
:10591000914206D82168052208442DA1FAF763FEBA
:1059200028B3A0686268011D914206D8216804224C
:10593000084429A1FAF757FEE8B1D4E901018142F0
:1059400003D22268525C222A1DD0814221D22268D1
:10595000525C2D2A02D0303A092A1AD8214628460C
:10596000BDE87040FFF73ABE0420E86006E0EE6054
:10597000A068401D04E002206E61E860A068001D80
:10598000A060012070BD21462846BDE87040FFF7A9
:1059900022BF814203D22268525C5B2A07D0814237
:1059A00003D22068405C7B2807D0002070BD2146D0
:1059B0002846BDE87040FFF789BD21462846BDE86E
:1059C0007040FFF783BE00006E756C6C0000000035
:1059D00066616C73650000007472756500000000FC
:1059E00000B583B00A460021CDE9001101466846A2
:1059F000FBF7BEFCDDE9000103B000BD2DE9F04777
:105A000005460027481B1646894606285DDBA81C6C
:105A1000FFF7C4FD0446A0F55C414FF4806081426D
:105A200053D3A4F55841824651451AD2A81DA9EB7B
:105A300000014FF00C08062947DB01785C2944D1AE
:105A40004178752941D1801CFFF7A8FDA0F55C4184
:105A500051453AD2C4F3090161F39F2000F580302B
:105A600002E04FF006082046802801D2012110E014
:105A7000B0F5006F02D20221C0270AE0B0F5803FE6
:105A800002D20321E02704E0B0F5881F1DD20421D3
:105A9000F0274A1E08E000BF00F0BF03346843F05F
:105AA00080038009A354521E12F0FF02F4D1012991
:105AB00001D9384301E000F07F003268107030688F
:105AC000084430604046BDE8F0870020FBE7000056
:105AD00010B500290AD00878002807D00548784476
